{
  "address": "0x3f6748D2e66b4634Cc9b570f0Ac8b89AED963b21",
  "abi": [
    {
      "anonymous": false,
      "inputs": [
        {
          "indexed": false,
          "internalType": "string",
          "name": "uri",
          "type": "string"
        }
      ],
      "name": "StoreURIEvent",
      "type": "event"
    },
    {
      "inputs": [
        {
          "internalType": "string",
          "name": "uri",
          "type": "string"
        }
      ],
      "name": "StoreURI",
      "outputs": [],
      "stateMutability": "nonpayable",
      "type": "function"
    }
  ],
  "transactionHash": "0x0f94e02d315cc89e9bae637ad267aeb0b2f2ab558ada9588348e6d8ab47aacf4",
  "args": [],
  "numDeployments": 2,
  "solcInputHash": "7b245a23469ad5ab2ee3dfdaa795c919",
  "bytecode": "0x608060405234801561001057600080fd5b5061027a806100206000396000f3fe608060405234801561001057600080fd5b506004361061002b5760003560e01c80631ae1601f14610030575b600080fd5b61004361003e36600461019b565b610045565b005b7f93f1fd734fe07dac49319b65c94a15767dd0e6605f99842429dd1189d933690481604051610074919061022c565b60405180910390a150565b7f4e487b7100000000000000000000000000000000000000000000000000000000600052604160045260246000fd5b601f19601f830116810181811067ffffffffffffffff821117156100d4576100d461007f565b6040525050565b60006100e660405190565b90506100f282826100ae565b919050565b600067ffffffffffffffff8211156101115761011161007f565b601f19601f83011660200192915050565b82818337506000910152565b600061014161013c846100f7565b6100db565b90508281526020810184848401111561015c5761015c600080fd5b610167848285610122565b509392505050565b600082601f83011261018357610183600080fd5b813561019384826020860161012e565b949350505050565b6000602082840312156101b0576101b0600080fd5b813567ffffffffffffffff8111156101ca576101ca600080fd5b6101938482850161016f565b60005b838110156101f15781810151838201526020016101d9565b50506000910152565b6000610204825190565b80845260208401935061021b8185602086016101d6565b601f01601f19169290920192915050565b6020808252810161023d81846101fa565b939250505056fea26469706673582212207cc09bc347966783182970a1e8dc0c69a619b1cf04885c332b903d7ed8f0849364736f6c63430008110033",
  "devdoc": {
    "kind": "dev",
    "methods": {},
    "version": 1
  },
  "userdoc": {
    "kind": "user",
    "methods": {},
    "version": 1
  },
  "storageLayout": {
    "storage": [],
    "types": null
  }
}